{
  "_format": "hh-sol-artifact-1",
  "contractName": "B3TRVetSwapper",
  "sourceName": "contracts/B3TRVetSwapper.sol",
  "abi": [
    {
      "inputs": [
        {
          "internalType": "address",
          "name": "_b3trAddress",
          "type": "address"
        },
        {
          "internalType": "address",
          "name": "_routerAddress",
          "type": "address"
        }
      ],
      "stateMutability": "nonpayable",
      "type": "constructor"
    },
    {
      "inputs": [
        {
          "internalType": "address",
          "name": "target",
          "type": "address"
        }
      ],
      "name": "AddressEmptyCode",
      "type": "error"
    },
    {
      "inputs": [
        {
          "internalType": "address",
          "name": "account",
          "type": "address"
        }
      ],
      "name": "AddressInsufficientBalance",
      "type": "error"
    },
    {
      "inputs": [],
      "name": "FailedInnerCall",
      "type": "error"
    },
    {
      "inputs": [
        {
          "internalType": "address",
          "name": "owner",
          "type": "address"
        }
      ],
      "name": "OwnableInvalidOwner",
      "type": "error"
    },
    {
      "inputs": [
        {
          "internalType": "address",
          "name": "account",
          "type": "address"
        }
      ],
      "name": "OwnableUnauthorizedAccount",
      "type": "error"
    },
    {
      "inputs": [
        {
          "internalType": "address",
          "name": "token",
          "type": "address"
        }
      ],
      "name": "SafeERC20FailedOperation",
      "type": "error"
    },
    {
      "anonymous": false,
      "inputs": [
        {
          "indexed": true,
          "internalType": "address",
          "name": "previousOwner",
          "type": "address"
        },
        {
          "indexed": true,
          "internalType": "address",
          "name": "newOwner",
          "type": "address"
        }
      ],
      "name": "OwnershipTransferred",
      "type": "event"
    },
    {
      "anonymous": false,
      "inputs": [
        {
          "indexed": true,
          "internalType": "address",
          "name": "newRouter",
          "type": "address"
        }
      ],
      "name": "RouterUpdated",
      "type": "event"
    },
    {
      "anonymous": false,
      "inputs": [
        {
          "indexed": true,
          "internalType": "address",
          "name": "user",
          "type": "address"
        },
        {
          "indexed": false,
          "internalType": "uint256",
          "name": "amountInB3TR",
          "type": "uint256"
        },
        {
          "indexed": false,
          "internalType": "uint256",
          "name": "amountOutVET",
          "type": "uint256"
        }
      ],
      "name": "Swapped",
      "type": "event"
    },
    {
      "inputs": [],
      "name": "B3TR_ADDRESS",
      "outputs": [
        {
          "internalType": "address",
          "name": "",
          "type": "address"
        }
      ],
      "stateMutability": "view",
      "type": "function"
    },
    {
      "inputs": [],
      "name": "WVET_ADDRESS",
      "outputs": [
        {
          "internalType": "address",
          "name": "",
          "type": "address"
        }
      ],
      "stateMutability": "view",
      "type": "function"
    },
    {
      "inputs": [
        {
          "internalType": "uint256",
          "name": "amountInB3TR",
          "type": "uint256"
        }
      ],
      "name": "getEstimatedVETOut",
      "outputs": [
        {
          "internalType": "uint256",
          "name": "",
          "type": "uint256"
        }
      ],
      "stateMutability": "view",
      "type": "function"
    },
    {
      "inputs": [],
      "name": "owner",
      "outputs": [
        {
          "internalType": "address",
          "name": "",
          "type": "address"
        }
      ],
      "stateMutability": "view",
      "type": "function"
    },
    {
      "inputs": [],
      "name": "renounceOwnership",
      "outputs": [],
      "stateMutability": "nonpayable",
      "type": "function"
    },
    {
      "inputs": [],
      "name": "router",
      "outputs": [
        {
          "internalType": "contract IUniswapV2Router02",
          "name": "",
          "type": "address"
        }
      ],
      "stateMutability": "view",
      "type": "function"
    },
    {
      "inputs": [
        {
          "internalType": "address",
          "name": "newRouterAddress",
          "type": "address"
        }
      ],
      "name": "setRouterAddress",
      "outputs": [],
      "stateMutability": "nonpayable",
      "type": "function"
    },
    {
      "inputs": [
        {
          "internalType": "uint256",
          "name": "amountIn",
          "type": "uint256"
        },
        {
          "internalType": "uint256",
          "name": "amountOutMin",
          "type": "uint256"
        },
        {
          "internalType": "uint256",
          "name": "deadline",
          "type": "uint256"
        }
      ],
      "name": "swapB3TRForVET",
      "outputs": [],
      "stateMutability": "nonpayable",
      "type": "function"
    },
    {
      "inputs": [
        {
          "internalType": "address",
          "name": "newOwner",
          "type": "address"
        }
      ],
      "name": "transferOwnership",
      "outputs": [],
      "stateMutability": "nonpayable",
      "type": "function"
    },
    {
      "inputs": [
        {
          "internalType": "address",
          "name": "tokenAddress",
          "type": "address"
        }
      ],
      "name": "withdrawToken",
      "outputs": [],
      "stateMutability": "nonpayable",
      "type": "function"
    },
    {
      "inputs": [],
      "name": "withdrawVET",
      "outputs": [],
      "stateMutability": "nonpayable",
      "type": "function"
    },
    {
      "stateMutability": "payable",
      "type": "receive"
    }
  ],
  "bytecode": "0x60a06040523480156200001157600080fd5b50604051620012b0380380620012b0833981016040819052620000349162000271565b33806200005c57604051631e4fbdf760e01b8152600060048201526024015b60405180910390fd5b6200006781620000e0565b506001600160a01b038216620000c05760405162461bcd60e51b815260206004820152601460248201527f496e76616c696420423354522061646472657373000000000000000000000000604482015260640162000053565b6001600160a01b038216608052620000d88162000130565b5050620002ce565b600080546001600160a01b038381166001600160a01b0319831681178455604051919092169283917f8be0079c531659141344cd1fd0a4f28419497f9722a3daafe3b4186f6b6457e09190a35050565b6001600160a01b038116620001885760405162461bcd60e51b815260206004820152601660248201527f496e76616c696420726f75746572206164647265737300000000000000000000604482015260640162000053565b600180546001600160a01b0319166001600160a01b038316908117909155604080516315ab88c960e31b8152905163ad5c4648916004808201926020929091908290030181865afa158015620001e2573d6000803e3d6000fd5b505050506040513d601f19601f82011682018060405250810190620002089190620002a9565b600280546001600160a01b0319166001600160a01b03928316179055604051908216907f7aed1d3e8155a07ccf395e44ea3109a0e2d6c9b29bbbe9f142d9790596f4dc8090600090a250565b80516001600160a01b03811681146200026c57600080fd5b919050565b600080604083850312156200028557600080fd5b620002908362000254565b9150620002a06020840162000254565b90509250929050565b600060208284031215620002bc57600080fd5b620002c78262000254565b9392505050565b608051610fa36200030d600039600081816101d3015281816102e20152818161033501528181610583015281816108ad015261093f0152610fa36000f3fe6080604052600436106100a05760003560e01c8063894760691161006457806389476069146101555780638da5cb5b14610175578063a5dd2ff414610193578063b37e7ae1146101c1578063f2fde38b146101f5578063f887ea401461021557600080fd5b806341cb87fc146100ac57806345184fce146100ce57806363ee1708146100e3578063715018a6146101035780637f1d984e1461011857600080fd5b366100a757005b600080fd5b3480156100b857600080fd5b506100cc6100c7366004610cd7565b610235565b005b3480156100da57600080fd5b506100cc610249565b3480156100ef57600080fd5b506100cc6100fe366004610cf4565b61028b565b34801561010f57600080fd5b506100cc6104b2565b34801561012457600080fd5b50600254610138906001600160a01b031681565b6040516001600160a01b0390911681526020015b60405180910390f35b34801561016157600080fd5b506100cc610170366004610cd7565b6104c6565b34801561018157600080fd5b506000546001600160a01b0316610138565b34801561019f57600080fd5b506101b36101ae366004610d20565b61055c565b60405190815260200161014c565b3480156101cd57600080fd5b506101387f000000000000000000000000000000000000000000000000000000000000000081565b34801561020157600080fd5b506100cc610210366004610cd7565b610695565b34801561022157600080fd5b50600154610138906001600160a01b031681565b61023d6106d0565b610246816106fd565b50565b6102516106d0565b600080546040516001600160a01b03909116914780156108fc02929091818181858888f19350505050158015610246573d6000803e3d6000fd5b600083116102d55760405162461bcd60e51b81526020600482015260126024820152710416d6f756e74206d757374206265203e20360741b60448201526064015b60405180910390fd5b61030a6001600160a01b037f000000000000000000000000000000000000000000000000000000000000000016333086610815565b610312610882565b6040805160028082526060820183526000926020830190803683370190505090507f00000000000000000000000000000000000000000000000000000000000000008160008151811061036757610367610d4f565b6001600160a01b03928316602091820292909201015260025482519116908290600190811061039857610398610d4f565b6001600160a01b0392831660209182029290920101526001546040516318cbafe560e01b815260009291909116906318cbafe5906103e29088908890879033908a90600401610da9565b6000604051808303816000875af1158015610401573d6000803e3d6000fd5b505050506040513d6000823e601f3d908101601f191682016040526104299190810190610de5565b9050336001600160a01b03167f3a9a9f34f5831e9c8ecb66ab3aa308b2ff31eaca434615f6c9cadc656a9af71c8260008151811061046957610469610d4f565b60200260200101518360018151811061048457610484610d4f565b60200260200101516040516104a3929190918252602082015260400190565b60405180910390a25050505050565b6104ba6106d0565b6104c4600061096a565b565b6104ce6106d0565b6102466104e36000546001600160a01b031690565b6040516370a0823160e01b81523060048201526001600160a01b038416906370a0823190602401602060405180830381865afa158015610527573d6000803e3d6000fd5b505050506040513d601f19601f8201168201806040525081019061054b9190610ea3565b6001600160a01b03841691906109ba565b604080516002808252606082018352600092839291906020830190803683370190505090507f0000000000000000000000000000000000000000000000000000000000000000816000815181106105b5576105b5610d4f565b6001600160a01b0392831660209182029290920101526002548251911690829060019081106105e6576105e6610d4f565b6001600160a01b03928316602091820292909201015260015460405163d06ca61f60e01b8152600092919091169063d06ca61f9061062a9087908690600401610ebc565b600060405180830381865afa158015610647573d6000803e3d6000fd5b505050506040513d6000823e601f3d908101601f1916820160405261066f9190810190610de5565b90508060018151811061068457610684610d4f565b602002602001015192505050919050565b61069d6106d0565b6001600160a01b0381166106c757604051631e4fbdf760e01b8152600060048201526024016102cc565b6102468161096a565b6000546001600160a01b031633146104c45760405163118cdaa760e01b81523360048201526024016102cc565b6001600160a01b03811661074c5760405162461bcd60e51b8152602060048201526016602482015275496e76616c696420726f75746572206164647265737360501b60448201526064016102cc565b600180546001600160a01b0319166001600160a01b038316908117909155604080516315ab88c960e31b8152905163ad5c4648916004808201926020929091908290030181865afa1580156107a5573d6000803e3d6000fd5b505050506040513d601f19601f820116820180604052508101906107c99190610edd565b600280546001600160a01b0319166001600160a01b03928316179055604051908216907f7aed1d3e8155a07ccf395e44ea3109a0e2d6c9b29bbbe9f142d9790596f4dc8090600090a250565b6040516001600160a01b03848116602483015283811660448301526064820183905261087c9186918216906323b872dd906084015b604051602081830303815290604052915060e01b6020820180516001600160e01b0383818316178352505050506109f0565b50505050565b600154604051636eb1769f60e11b81523060048201526001600160a01b0391821660248201526000917f0000000000000000000000000000000000000000000000000000000000000000169063dd62ed3e90604401602060405180830381865afa1580156108f4573d6000803e3d6000fd5b505050506040513d601f19601f820116820180604052508101906109189190610ea3565b90506109276002600019610efa565b81101561024657600154610246906001600160a01b037f000000000000000000000000000000000000000000000000000000000000000081169116600019610a53565b600080546001600160a01b038381166001600160a01b0319831681178455604051919092169283917f8be0079c531659141344cd1fd0a4f28419497f9722a3daafe3b4186f6b6457e09190a35050565b6040516001600160a01b038381166024830152604482018390526109eb91859182169063a9059cbb9060640161084a565b505050565b6000610a056001600160a01b03841683610ae3565b90508051600014158015610a2a575080806020019051810190610a289190610f1c565b155b156109eb57604051635274afe760e01b81526001600160a01b03841660048201526024016102cc565b604080516001600160a01b038416602482015260448082018490528251808303909101815260649091019091526020810180516001600160e01b031663095ea7b360e01b179052610aa48482610af8565b61087c576040516001600160a01b03848116602483015260006044830152610ad991869182169063095ea7b39060640161084a565b61087c84826109f0565b6060610af183836000610ba0565b9392505050565b6000806000846001600160a01b031684604051610b159190610f3e565b6000604051808303816000865af19150503d8060008114610b52576040519150601f19603f3d011682016040523d82523d6000602084013e610b57565b606091505b5091509150818015610b81575080511580610b81575080806020019051810190610b819190610f1c565b8015610b9757506000856001600160a01b03163b115b95945050505050565b606081471015610bc55760405163cd78605960e01b81523060048201526024016102cc565b600080856001600160a01b03168486604051610be19190610f3e565b60006040518083038185875af1925050503d8060008114610c1e576040519150601f19603f3d011682016040523d82523d6000602084013e610c23565b606091505b5091509150610c33868383610c3d565b9695505050505050565b606082610c5257610c4d82610c99565b610af1565b8151158015610c6957506001600160a01b0384163b155b15610c9257604051639996b31560e01b81526001600160a01b03851660048201526024016102cc565b5080610af1565b805115610ca95780518082602001fd5b604051630a12f52160e11b815260040160405180910390fd5b6001600160a01b038116811461024657600080fd5b600060208284031215610ce957600080fd5b8135610af181610cc2565b600080600060608486031215610d0957600080fd5b505081359360208301359350604090920135919050565b600060208284031215610d3257600080fd5b5035919050565b634e487b7160e01b600052604160045260246000fd5b634e487b7160e01b600052603260045260246000fd5b600081518084526020808501945080840160005b83811015610d9e5781516001600160a01b031687529582019590820190600101610d79565b509495945050505050565b85815284602082015260a060408201526000610dc860a0830186610d65565b6001600160a01b0394909416606083015250608001529392505050565b60006020808385031215610df857600080fd5b825167ffffffffffffffff80821115610e1057600080fd5b818501915085601f830112610e2457600080fd5b815181811115610e3657610e36610d39565b8060051b604051601f19603f83011681018181108582111715610e5b57610e5b610d39565b604052918252848201925083810185019188831115610e7957600080fd5b938501935b82851015610e9757845184529385019392850192610e7e565b98975050505050505050565b600060208284031215610eb557600080fd5b5051919050565b828152604060208201526000610ed56040830184610d65565b949350505050565b600060208284031215610eef57600080fd5b8151610af181610cc2565b600082610f1757634e487b7160e01b600052601260045260246000fd5b500490565b600060208284031215610f2e57600080fd5b81518015158114610af157600080fd5b6000825160005b81811015610f5f5760208186018101518583015201610f45565b50600092019182525091905056fea264697066735822122092c8e38e8ea651d41a56eb8b3458e9758750720dad76cb9a165e6b19b2c94e7164736f6c63430008140033",
  "linkReferences": {},
  "deployedLinkReferences": {}
}