{
  "_format": "hh-sol-artifact-1",
  "contractName": "MockUniswapV2Router",
  "sourceName": "contracts/mocks/MockUniswapV2Router.sol",
  "abi": [
    {
      "inputs": [
        {
          "internalType": "address",
          "name": "_weth",
          "type": "address"
        }
      ],
      "stateMutability": "nonpayable",
      "type": "constructor"
    },
    {
      "inputs": [],
      "name": "WETH",
      "outputs": [
        {
          "internalType": "address",
          "name": "",
          "type": "address"
        }
      ],
      "stateMutability": "view",
      "type": "function"
    },
    {
      "inputs": [
        {
          "internalType": "uint256",
          "name": "amountIn",
          "type": "uint256"
        },
        {
          "internalType": "address[]",
          "name": "path",
          "type": "address[]"
        }
      ],
      "name": "getAmountsOut",
      "outputs": [
        {
          "internalType": "uint256[]",
          "name": "amounts",
          "type": "uint256[]"
        }
      ],
      "stateMutability": "pure",
      "type": "function"
    },
    {
      "inputs": [
        {
          "internalType": "uint256",
          "name": "amountIn",
          "type": "uint256"
        },
        {
          "internalType": "uint256",
          "name": "amountOutMin",
          "type": "uint256"
        },
        {
          "internalType": "address[]",
          "name": "path",
          "type": "address[]"
        },
        {
          "internalType": "address",
          "name": "to",
          "type": "address"
        },
        {
          "internalType": "uint256",
          "name": "deadline",
          "type": "uint256"
        }
      ],
      "name": "swapExactTokensForETH",
      "outputs": [
        {
          "internalType": "uint256[]",
          "name": "amounts",
          "type": "uint256[]"
        }
      ],
      "stateMutability": "nonpayable",
      "type": "function"
    },
    {
      "stateMutability": "payable",
      "type": "receive"
    }
  ],
  "bytecode": "0x60a060405234801561001057600080fd5b5060405161064538038061064583398101604081905261002f91610040565b6001600160a01b0316608052610070565b60006020828403121561005257600080fd5b81516001600160a01b038116811461006957600080fd5b9392505050565b6080516105bb61008a6000396000608c01526105bb6000f3fe6080604052600436106100385760003560e01c806318cbafe514610044578063ad5c46481461007a578063d06ca61f146100c657600080fd5b3661003f57005b600080fd5b34801561005057600080fd5b5061006461005f36600461035b565b6100e6565b60405161007191906103fd565b60405180910390f35b34801561008657600080fd5b506100ae7f000000000000000000000000000000000000000000000000000000000000000081565b6040516001600160a01b039091168152602001610071565b3480156100d257600080fd5b506100646100e1366004610457565b61029b565b6060428210156101275760405162461bcd60e51b8152602060048201526007602482015266115e1c1a5c995960ca1b60448201526064015b60405180910390fd5b600087116101685760405162461bcd60e51b815260206004820152600e60248201526d125b9d985b1a5908185b5bdd5b9d60921b604482015260640161011e565b6040805160028082526060820183529091602083019080368337019050509050868160008151811061019c5761019c610528565b602090810291909101015260646101b488605a61053e565b6101be9190610563565b816001815181106101d1576101d1610528565b6020026020010181815250506000836001600160a01b0316826001815181106101fc576101fc610528565b602002602001015160405160006040518083038185875af1925050503d8060008114610244576040519150601f19603f3d011682016040523d82523d6000602084013e610249565b606091505b50509050806102905760405162461bcd60e51b8152602060048201526013602482015272115512081d1c985b9cd9995c8819985a5b1959606a1b604482015260640161011e565b509695505050505050565b6060815167ffffffffffffffff8111156102b7576102b7610441565b6040519080825280602002602001820160405280156102e0578160200160208202803683370190505b50905082816000815181106102f7576102f7610528565b6020908102919091010152606461030f84605a61053e565b6103199190610563565b8160018151811061032c5761032c610528565b6020026020010181815250505b92915050565b80356001600160a01b038116811461035657600080fd5b919050565b60008060008060008060a0878903121561037457600080fd5b8635955060208701359450604087013567ffffffffffffffff8082111561039a57600080fd5b818901915089601f8301126103ae57600080fd5b8135818111156103bd57600080fd5b8a60208260051b85010111156103d257600080fd5b6020830196508095505050506103ea6060880161033f565b9150608087013590509295509295509295565b6020808252825182820181905260009190848201906040850190845b8181101561043557835183529284019291840191600101610419565b50909695505050505050565b634e487b7160e01b600052604160045260246000fd5b6000806040838503121561046a57600080fd5b8235915060208084013567ffffffffffffffff8082111561048a57600080fd5b818601915086601f83011261049e57600080fd5b8135818111156104b0576104b0610441565b8060051b604051601f19603f830116810181811085821117156104d5576104d5610441565b6040529182528482019250838101850191898311156104f357600080fd5b938501935b82851015610518576105098561033f565b845293850193928501926104f8565b8096505050505050509250929050565b634e487b7160e01b600052603260045260246000fd5b808202811582820484141761033957634e487b7160e01b600052601160045260246000fd5b60008261058057634e487b7160e01b600052601260045260246000fd5b50049056fea2646970667358221220e2b03cb4f681efb587512baa5a7b9ef2922989b22b743bab3252f241da0d39dd64736f6c63430008140033",
  "linkReferences": {},
  "deployedLinkReferences": {}
}